{
	"Lab9/Task/task2.sol": {
		"Counter": {
			"abi": [
				{
					"inputs": [],
					"name": "count",
					"outputs": [
						{
							"internalType": "uint256",
							"name": "",
							"type": "uint256"
						}
					],
					"stateMutability": "view",
					"type": "function"
				},
				{
					"inputs": [],
					"name": "dec",
					"outputs": [],
					"stateMutability": "nonpayable",
					"type": "function"
				},
				{
					"inputs": [],
					"name": "get",
					"outputs": [
						{
							"internalType": "uint256",
							"name": "",
							"type": "uint256"
						}
					],
					"stateMutability": "view",
					"type": "function"
				},
				{
					"inputs": [],
					"name": "inc",
					"outputs": [],
					"stateMutability": "nonpayable",
					"type": "function"
				}
			],
			"devdoc": {
				"kind": "dev",
				"methods": {},
				"version": 1
			},
			"evm": {
				"assembly": "    /* \"Lab9/Task/task2.sol\":58:524  contract Counter {... */\n  mstore(0x40, 0x80)\n  callvalue\n  dup1\n  iszero\n  tag_1\n  jumpi\n  revert(0x00, 0x00)\ntag_1:\n  pop\n  dataSize(sub_0)\n  dup1\n  dataOffset(sub_0)\n  0x00\n  codecopy\n  0x00\n  return\nstop\n\nsub_0: assembly {\n        /* \"Lab9/Task/task2.sol\":58:524  contract Counter {... */\n      mstore(0x40, 0x80)\n      callvalue\n      dup1\n      iszero\n      tag_1\n      jumpi\n      revert(0x00, 0x00)\n    tag_1:\n      pop\n      jumpi(tag_2, lt(calldatasize, 0x04))\n      shr(0xe0, calldataload(0x00))\n      dup1\n      0x06661abd\n      eq\n      tag_3\n      jumpi\n      dup1\n      0x371303c0\n      eq\n      tag_4\n      jumpi\n      dup1\n      0x6d4ce63c\n      eq\n      tag_5\n      jumpi\n      dup1\n      0xb3bcfa82\n      eq\n      tag_6\n      jumpi\n    tag_2:\n      revert(0x00, 0x00)\n        /* \"Lab9/Task/task2.sol\":81:98  uint public count */\n    tag_3:\n      tag_7\n      tag_8\n      jump\t// in\n    tag_7:\n      mload(0x40)\n      tag_9\n      swap2\n      swap1\n      tag_10\n      jump\t// in\n    tag_9:\n      mload(0x40)\n      dup1\n      swap2\n      sub\n      swap1\n      return\n        /* \"Lab9/Task/task2.sol\":263:312  function inc() public {... */\n    tag_4:\n      tag_11\n      tag_12\n      jump\t// in\n    tag_11:\n      stop\n        /* \"Lab9/Task/task2.sol\":146:217  function get() public view returns (uint) {... */\n    tag_5:\n      tag_13\n      tag_14\n      jump\t// in\n    tag_13:\n      mload(0x40)\n      tag_15\n      swap2\n      swap1\n      tag_10\n      jump\t// in\n    tag_15:\n      mload(0x40)\n      dup1\n      swap2\n      sub\n      swap1\n      return\n        /* \"Lab9/Task/task2.sol\":358:522  function dec() public {... */\n    tag_6:\n      tag_16\n      tag_17\n      jump\t// in\n    tag_16:\n      stop\n        /* \"Lab9/Task/task2.sol\":81:98  uint public count */\n    tag_8:\n      sload(0x00)\n      dup2\n      jump\t// out\n        /* \"Lab9/Task/task2.sol\":263:312  function inc() public {... */\n    tag_12:\n        /* \"Lab9/Task/task2.sol\":304:305  1 */\n      0x01\n        /* \"Lab9/Task/task2.sol\":295:300  count */\n      0x00\n      0x00\n        /* \"Lab9/Task/task2.sol\":295:305  count += 1 */\n      dup3\n      dup3\n      sload\n      tag_19\n      swap2\n      swap1\n      tag_20\n      jump\t// in\n    tag_19:\n      swap3\n      pop\n      pop\n      dup2\n      swap1\n      sstore\n      pop\n        /* \"Lab9/Task/task2.sol\":263:312  function inc() public {... */\n      jump\t// out\n        /* \"Lab9/Task/task2.sol\":146:217  function get() public view returns (uint) {... */\n    tag_14:\n        /* \"Lab9/Task/task2.sol\":182:186  uint */\n      0x00\n        /* \"Lab9/Task/task2.sol\":205:210  count */\n      sload(0x00)\n        /* \"Lab9/Task/task2.sol\":198:210  return count */\n      swap1\n      pop\n        /* \"Lab9/Task/task2.sol\":146:217  function get() public view returns (uint) {... */\n      swap1\n      jump\t// out\n        /* \"Lab9/Task/task2.sol\":358:522  function dec() public {... */\n    tag_17:\n        /* \"Lab9/Task/task2.sol\":454:455  0 */\n      0x00\n        /* \"Lab9/Task/task2.sol\":446:451  count */\n      sload(0x00)\n        /* \"Lab9/Task/task2.sol\":446:455  count > 0 */\n      gt\n        /* \"Lab9/Task/task2.sol\":438:495  require(count > 0, \"Counter:cannot decrement below zero\") */\n      tag_23\n      jumpi\n      mload(0x40)\n      0x08c379a000000000000000000000000000000000000000000000000000000000\n      dup2\n      mstore\n      0x04\n      add\n      tag_24\n      swap1\n      tag_25\n      jump\t// in\n    tag_24:\n      mload(0x40)\n      dup1\n      swap2\n      sub\n      swap1\n      revert\n    tag_23:\n        /* \"Lab9/Task/task2.sol\":514:515  1 */\n      0x01\n        /* \"Lab9/Task/task2.sol\":505:510  count */\n      0x00\n      0x00\n        /* \"Lab9/Task/task2.sol\":505:515  count -= 1 */\n      dup3\n      dup3\n      sload\n      tag_26\n      swap2\n      swap1\n      tag_27\n      jump\t// in\n    tag_26:\n      swap3\n      pop\n      pop\n      dup2\n      swap1\n      sstore\n      pop\n        /* \"Lab9/Task/task2.sol\":358:522  function dec() public {... */\n      jump\t// out\n        /* \"#utility.yul\":7:84   */\n    tag_28:\n        /* \"#utility.yul\":44:51   */\n      0x00\n        /* \"#utility.yul\":73:78   */\n      dup2\n        /* \"#utility.yul\":62:78   */\n      swap1\n      pop\n        /* \"#utility.yul\":7:84   */\n      swap2\n      swap1\n      pop\n      jump\t// out\n        /* \"#utility.yul\":90:208   */\n    tag_29:\n        /* \"#utility.yul\":177:201   */\n      tag_37\n        /* \"#utility.yul\":195:200   */\n      dup2\n        /* \"#utility.yul\":177:201   */\n      tag_28\n      jump\t// in\n    tag_37:\n        /* \"#utility.yul\":172:175   */\n      dup3\n        /* \"#utility.yul\":165:202   */\n      mstore\n        /* \"#utility.yul\":90:208   */\n      pop\n      pop\n      jump\t// out\n        /* \"#utility.yul\":214:436   */\n    tag_10:\n        /* \"#utility.yul\":307:311   */\n      0x00\n        /* \"#utility.yul\":345:347   */\n      0x20\n        /* \"#utility.yul\":334:343   */\n      dup3\n        /* \"#utility.yul\":330:348   */\n      add\n        /* \"#utility.yul\":322:348   */\n      swap1\n      pop\n        /* \"#utility.yul\":358:429   */\n      tag_39\n        /* \"#utility.yul\":426:427   */\n      0x00\n        /* \"#utility.yul\":415:424   */\n      dup4\n        /* \"#utility.yul\":411:428   */\n      add\n        /* \"#utility.yul\":402:408   */\n      dup5\n        /* \"#utility.yul\":358:429   */\n      tag_29\n      jump\t// in\n    tag_39:\n        /* \"#utility.yul\":214:436   */\n      swap3\n      swap2\n      pop\n      pop\n      jump\t// out\n        /* \"#utility.yul\":442:622   */\n    tag_30:\n        /* \"#utility.yul\":490:567   */\n      0x4e487b7100000000000000000000000000000000000000000000000000000000\n        /* \"#utility.yul\":487:488   */\n      0x00\n        /* \"#utility.yul\":480:568   */\n      mstore\n        /* \"#utility.yul\":587:591   */\n      0x11\n        /* \"#utility.yul\":584:585   */\n      0x04\n        /* \"#utility.yul\":577:592   */\n      mstore\n        /* \"#utility.yul\":611:615   */\n      0x24\n        /* \"#utility.yul\":608:609   */\n      0x00\n        /* \"#utility.yul\":601:616   */\n      revert\n        /* \"#utility.yul\":628:819   */\n    tag_20:\n        /* \"#utility.yul\":668:671   */\n      0x00\n        /* \"#utility.yul\":687:707   */\n      tag_42\n        /* \"#utility.yul\":705:706   */\n      dup3\n        /* \"#utility.yul\":687:707   */\n      tag_28\n      jump\t// in\n    tag_42:\n        /* \"#utility.yul\":682:707   */\n      swap2\n      pop\n        /* \"#utility.yul\":721:741   */\n      tag_43\n        /* \"#utility.yul\":739:740   */\n      dup4\n        /* \"#utility.yul\":721:741   */\n      tag_28\n      jump\t// in\n    tag_43:\n        /* \"#utility.yul\":716:741   */\n      swap3\n      pop\n        /* \"#utility.yul\":764:765   */\n      dup3\n        /* \"#utility.yul\":761:762   */\n      dup3\n        /* \"#utility.yul\":757:766   */\n      add\n        /* \"#utility.yul\":750:766   */\n      swap1\n      pop\n        /* \"#utility.yul\":785:788   */\n      dup1\n        /* \"#utility.yul\":782:783   */\n      dup3\n        /* \"#utility.yul\":779:789   */\n      gt\n        /* \"#utility.yul\":776:812   */\n      iszero\n      tag_44\n      jumpi\n        /* \"#utility.yul\":792:810   */\n      tag_45\n      tag_30\n      jump\t// in\n    tag_45:\n        /* \"#utility.yul\":776:812   */\n    tag_44:\n        /* \"#utility.yul\":628:819   */\n      swap3\n      swap2\n      pop\n      pop\n      jump\t// out\n        /* \"#utility.yul\":825:994   */\n    tag_31:\n        /* \"#utility.yul\":909:920   */\n      0x00\n        /* \"#utility.yul\":943:949   */\n      dup3\n        /* \"#utility.yul\":938:941   */\n      dup3\n        /* \"#utility.yul\":931:950   */\n      mstore\n        /* \"#utility.yul\":983:987   */\n      0x20\n        /* \"#utility.yul\":978:981   */\n      dup3\n        /* \"#utility.yul\":974:988   */\n      add\n        /* \"#utility.yul\":959:988   */\n      swap1\n      pop\n        /* \"#utility.yul\":825:994   */\n      swap3\n      swap2\n      pop\n      pop\n      jump\t// out\n        /* \"#utility.yul\":1000:1222   */\n    tag_32:\n        /* \"#utility.yul\":1140:1174   */\n      0x436f756e7465723a63616e6e6f742064656372656d656e742062656c6f77207a\n        /* \"#utility.yul\":1136:1137   */\n      0x00\n        /* \"#utility.yul\":1128:1134   */\n      dup3\n        /* \"#utility.yul\":1124:1138   */\n      add\n        /* \"#utility.yul\":1117:1175   */\n      mstore\n        /* \"#utility.yul\":1209:1214   */\n      0x65726f0000000000000000000000000000000000000000000000000000000000\n        /* \"#utility.yul\":1204:1206   */\n      0x20\n        /* \"#utility.yul\":1196:1202   */\n      dup3\n        /* \"#utility.yul\":1192:1207   */\n      add\n        /* \"#utility.yul\":1185:1215   */\n      mstore\n        /* \"#utility.yul\":1000:1222   */\n      pop\n      jump\t// out\n        /* \"#utility.yul\":1228:1594   */\n    tag_33:\n        /* \"#utility.yul\":1370:1373   */\n      0x00\n        /* \"#utility.yul\":1391:1458   */\n      tag_49\n        /* \"#utility.yul\":1455:1457   */\n      0x23\n        /* \"#utility.yul\":1450:1453   */\n      dup4\n        /* \"#utility.yul\":1391:1458   */\n      tag_31\n      jump\t// in\n    tag_49:\n        /* \"#utility.yul\":1384:1458   */\n      swap2\n      pop\n        /* \"#utility.yul\":1467:1560   */\n      tag_50\n        /* \"#utility.yul\":1556:1559   */\n      dup3\n        /* \"#utility.yul\":1467:1560   */\n      tag_32\n      jump\t// in\n    tag_50:\n        /* \"#utility.yul\":1585:1587   */\n      0x40\n        /* \"#utility.yul\":1580:1583   */\n      dup3\n        /* \"#utility.yul\":1576:1588   */\n      add\n        /* \"#utility.yul\":1569:1588   */\n      swap1\n      pop\n        /* \"#utility.yul\":1228:1594   */\n      swap2\n      swap1\n      pop\n      jump\t// out\n        /* \"#utility.yul\":1600:2019   */\n    tag_25:\n        /* \"#utility.yul\":1766:1770   */\n      0x00\n        /* \"#utility.yul\":1804:1806   */\n      0x20\n        /* \"#utility.yul\":1793:1802   */\n      dup3\n        /* \"#utility.yul\":1789:1807   */\n      add\n        /* \"#utility.yul\":1781:1807   */\n      swap1\n      pop\n        /* \"#utility.yul\":1853:1862   */\n      dup2\n        /* \"#utility.yul\":1847:1851   */\n      dup2\n        /* \"#utility.yul\":1843:1863   */\n      sub\n        /* \"#utility.yul\":1839:1840   */\n      0x00\n        /* \"#utility.yul\":1828:1837   */\n      dup4\n        /* \"#utility.yul\":1824:1841   */\n      add\n        /* \"#utility.yul\":1817:1864   */\n      mstore\n        /* \"#utility.yul\":1881:2012   */\n      tag_52\n        /* \"#utility.yul\":2007:2011   */\n      dup2\n        /* \"#utility.yul\":1881:2012   */\n      tag_33\n      jump\t// in\n    tag_52:\n        /* \"#utility.yul\":1873:2012   */\n      swap1\n      pop\n        /* \"#utility.yul\":1600:2019   */\n      swap2\n      swap1\n      pop\n      jump\t// out\n        /* \"#utility.yul\":2025:2219   */\n    tag_27:\n        /* \"#utility.yul\":2065:2069   */\n      0x00\n        /* \"#utility.yul\":2085:2105   */\n      tag_54\n        /* \"#utility.yul\":2103:2104   */\n      dup3\n        /* \"#utility.yul\":2085:2105   */\n      tag_28\n      jump\t// in\n    tag_54:\n        /* \"#utility.yul\":2080:2105   */\n      swap2\n      pop\n        /* \"#utility.yul\":2119:2139   */\n      tag_55\n        /* \"#utility.yul\":2137:2138   */\n      dup4\n        /* \"#utility.yul\":2119:2139   */\n      tag_28\n      jump\t// in\n    tag_55:\n        /* \"#utility.yul\":2114:2139   */\n      swap3\n      pop\n        /* \"#utility.yul\":2163:2164   */\n      dup3\n        /* \"#utility.yul\":2160:2161   */\n      dup3\n        /* \"#utility.yul\":2156:2165   */\n      sub\n        /* \"#utility.yul\":2148:2165   */\n      swap1\n      pop\n        /* \"#utility.yul\":2187:2188   */\n      dup2\n        /* \"#utility.yul\":2181:2185   */\n      dup2\n        /* \"#utility.yul\":2178:2189   */\n      gt\n        /* \"#utility.yul\":2175:2212   */\n      iszero\n      tag_56\n      jumpi\n        /* \"#utility.yul\":2192:2210   */\n      tag_57\n      tag_30\n      jump\t// in\n    tag_57:\n        /* \"#utility.yul\":2175:2212   */\n    tag_56:\n        /* \"#utility.yul\":2025:2219   */\n      swap3\n      swap2\n      pop\n      pop\n      jump\t// out\n\n    auxdata: 0xa2646970667358221220915bd08f9bbb0cbe6cc3847ec80290f475d50316e1513b54cfdf44784f2f36df64736f6c63430008220033\n}\n",
				"bytecode": {
					"linkReferences": {},
					"object": "6080604052348015600e575f5ffd5b506102ba8061001c5f395ff3fe608060405234801561000f575f5ffd5b506004361061004a575f3560e01c806306661abd1461004e578063371303c01461006c5780636d4ce63c14610076578063b3bcfa8214610094575b5f5ffd5b61005661009e565b604051610063919061013a565b60405180910390f35b6100746100a3565b005b61007e6100bd565b60405161008b919061013a565b60405180910390f35b61009c6100c5565b005b5f5481565b60015f5f8282546100b49190610180565b92505081905550565b5f5f54905090565b5f5f5411610108576040517f08c379a00000000000000000000000000000000000000000000000000000000081526004016100ff90610233565b60405180910390fd5b60015f5f8282546101199190610251565b92505081905550565b5f819050919050565b61013481610122565b82525050565b5f60208201905061014d5f83018461012b565b92915050565b7f4e487b71000000000000000000000000000000000000000000000000000000005f52601160045260245ffd5b5f61018a82610122565b915061019583610122565b92508282019050808211156101ad576101ac610153565b5b92915050565b5f82825260208201905092915050565b7f436f756e7465723a63616e6e6f742064656372656d656e742062656c6f77207a5f8201527f65726f0000000000000000000000000000000000000000000000000000000000602082015250565b5f61021d6023836101b3565b9150610228826101c3565b604082019050919050565b5f6020820190508181035f83015261024a81610211565b9050919050565b5f61025b82610122565b915061026683610122565b925082820390508181111561027e5761027d610153565b5b9291505056fea2646970667358221220915bd08f9bbb0cbe6cc3847ec80290f475d50316e1513b54cfdf44784f2f36df64736f6c63430008220033",
					"opcodes": "PUSH1 0x80 PUSH1 0x40 MSTORE CALLVALUE DUP1 ISZERO PUSH1 0xE JUMPI PUSH0 PUSH0 REVERT JUMPDEST POP PUSH2 0x2BA DUP1 PUSH2 0x1C PUSH0 CODECOPY PUSH0 RETURN INVALID PUSH1 0x80 PUSH1 0x40 MSTORE CALLVALUE DUP1 ISZERO PUSH2 0xF JUMPI PUSH0 PUSH0 REVERT JUMPDEST POP PUSH1 0x4 CALLDATASIZE LT PUSH2 0x4A JUMPI PUSH0 CALLDATALOAD PUSH1 0xE0 SHR DUP1 PUSH4 0x6661ABD EQ PUSH2 0x4E JUMPI DUP1 PUSH4 0x371303C0 EQ PUSH2 0x6C JUMPI DUP1 PUSH4 0x6D4CE63C EQ PUSH2 0x76 JUMPI DUP1 PUSH4 0xB3BCFA82 EQ PUSH2 0x94 JUMPI JUMPDEST PUSH0 PUSH0 REVERT JUMPDEST PUSH2 0x56 PUSH2 0x9E JUMP JUMPDEST PUSH1 0x40 MLOAD PUSH2 0x63 SWAP2 SWAP1 PUSH2 0x13A JUMP JUMPDEST PUSH1 0x40 MLOAD DUP1 SWAP2 SUB SWAP1 RETURN JUMPDEST PUSH2 0x74 PUSH2 0xA3 JUMP JUMPDEST STOP JUMPDEST PUSH2 0x7E PUSH2 0xBD JUMP JUMPDEST PUSH1 0x40 MLOAD PUSH2 0x8B SWAP2 SWAP1 PUSH2 0x13A JUMP JUMPDEST PUSH1 0x40 MLOAD DUP1 SWAP2 SUB SWAP1 RETURN JUMPDEST PUSH2 0x9C PUSH2 0xC5 JUMP JUMPDEST STOP JUMPDEST PUSH0 SLOAD DUP2 JUMP JUMPDEST PUSH1 0x1 PUSH0 PUSH0 DUP3 DUP3 SLOAD PUSH2 0xB4 SWAP2 SWAP1 PUSH2 0x180 JUMP JUMPDEST SWAP3 POP POP DUP2 SWAP1 SSTORE POP JUMP JUMPDEST PUSH0 PUSH0 SLOAD SWAP1 POP SWAP1 JUMP JUMPDEST PUSH0 PUSH0 SLOAD GT PUSH2 0x108 JUMPI PUSH1 0x40 MLOAD PUSH32 0x8C379A000000000000000000000000000000000000000000000000000000000 DUP2 MSTORE PUSH1 0x4 ADD PUSH2 0xFF SWAP1 PUSH2 0x233 JUMP JUMPDEST PUSH1 0x40 MLOAD DUP1 SWAP2 SUB SWAP1 REVERT JUMPDEST PUSH1 0x1 PUSH0 PUSH0 DUP3 DUP3 SLOAD PUSH2 0x119 SWAP2 SWAP1 PUSH2 0x251 JUMP JUMPDEST SWAP3 POP POP DUP2 SWAP1 SSTORE POP JUMP JUMPDEST PUSH0 DUP2 SWAP1 POP SWAP2 SWAP1 POP JUMP JUMPDEST PUSH2 0x134 DUP2 PUSH2 0x122 JUMP JUMPDEST DUP3 MSTORE POP POP JUMP JUMPDEST PUSH0 PUSH1 0x20 DUP3 ADD SWAP1 POP PUSH2 0x14D PUSH0 DUP4 ADD DUP5 PUSH2 0x12B JUMP JUMPDEST SWAP3 SWAP2 POP POP JUMP JUMPDEST PUSH32 0x4E487B7100000000000000000000000000000000000000000000000000000000 PUSH0 MSTORE PUSH1 0x11 PUSH1 0x4 MSTORE PUSH1 0x24 PUSH0 REVERT JUMPDEST PUSH0 PUSH2 0x18A DUP3 PUSH2 0x122 JUMP JUMPDEST SWAP2 POP PUSH2 0x195 DUP4 PUSH2 0x122 JUMP JUMPDEST SWAP3 POP DUP3 DUP3 ADD SWAP1 POP DUP1 DUP3 GT ISZERO PUSH2 0x1AD JUMPI PUSH2 0x1AC PUSH2 0x153 JUMP JUMPDEST JUMPDEST SWAP3 SWAP2 POP POP JUMP JUMPDEST PUSH0 DUP3 DUP3 MSTORE PUSH1 0x20 DUP3 ADD SWAP1 POP SWAP3 SWAP2 POP POP JUMP JUMPDEST PUSH32 0x436F756E7465723A63616E6E6F742064656372656D656E742062656C6F77207A PUSH0 DUP3 ADD MSTORE PUSH32 0x65726F0000000000000000000000000000000000000000000000000000000000 PUSH1 0x20 DUP3 ADD MSTORE POP JUMP JUMPDEST PUSH0 PUSH2 0x21D PUSH1 0x23 DUP4 PUSH2 0x1B3 JUMP JUMPDEST SWAP2 POP PUSH2 0x228 DUP3 PUSH2 0x1C3 JUMP JUMPDEST PUSH1 0x40 DUP3 ADD SWAP1 POP SWAP2 SWAP1 POP JUMP JUMPDEST PUSH0 PUSH1 0x20 DUP3 ADD SWAP1 POP DUP2 DUP2 SUB PUSH0 DUP4 ADD MSTORE PUSH2 0x24A DUP2 PUSH2 0x211 JUMP JUMPDEST SWAP1 POP SWAP2 SWAP1 POP JUMP JUMPDEST PUSH0 PUSH2 0x25B DUP3 PUSH2 0x122 JUMP JUMPDEST SWAP2 POP PUSH2 0x266 DUP4 PUSH2 0x122 JUMP JUMPDEST SWAP3 POP DUP3 DUP3 SUB SWAP1 POP DUP2 DUP2 GT ISZERO PUSH2 0x27E JUMPI PUSH2 0x27D PUSH2 0x153 JUMP JUMPDEST JUMPDEST SWAP3 SWAP2 POP POP JUMP INVALID LOG2 PUSH5 0x6970667358 0x22 SLT KECCAK256 SWAP2 JUMPDEST 0xD0 DUP16 SWAP12 0xBB 0xC 0xBE PUSH13 0xC3847EC80290F475D50316E151 EXTCODESIZE SLOAD 0xCF 0xDF PREVRANDAO PUSH25 0x4F2F36DF64736F6C6343000822003300000000000000000000 "
				},
				"gasEstimates": {
					"creation": {
						"codeDepositCost": "139600",
						"executionCost": "181",
						"totalCost": "139781"
					},
					"external": {
						"count()": "2402",
						"dec()": "infinite",
						"get()": "2453",
						"inc()": "infinite"
					}
				},
				"methodIdentifiers": {
					"count()": "06661abd",
					"dec()": "b3bcfa82",
					"get()": "6d4ce63c",
					"inc()": "371303c0"
				}
			},
			"storageLayout": {
				"storage": [
					{
						"astId": 3,
						"contract": "Lab9/Task/task2.sol:Counter",
						"label": "count",
						"offset": 0,
						"slot": "0",
						"type": "t_uint256"
					}
				],
				"types": {
					"t_uint256": {
						"encoding": "inplace",
						"label": "uint256",
						"numberOfBytes": "32"
					}
				}
			},
			"userdoc": {
				"kind": "user",
				"methods": {},
				"version": 1
			}
		}
	}
}