{
	"Lab9/Task/SumInRange.sol": {
		"SumInRange": {
			"abi": [
				{
					"inputs": [
						{
							"internalType": "uint256",
							"name": "start",
							"type": "uint256"
						},
						{
							"internalType": "uint256",
							"name": "to",
							"type": "uint256"
						}
					],
					"name": "sum",
					"outputs": [
						{
							"internalType": "uint256",
							"name": "",
							"type": "uint256"
						}
					],
					"stateMutability": "pure",
					"type": "function"
				}
			],
			"devdoc": {
				"kind": "dev",
				"methods": {},
				"version": 1
			},
			"evm": {
				"assembly": "    /* \"Lab9/Task/SumInRange.sol\":61:486  contract SumInRange {... */\n  mstore(0x40, 0x80)\n  callvalue\n  dup1\n  iszero\n  tag_1\n  jumpi\n  revert(0x00, 0x00)\ntag_1:\n  pop\n  dataSize(sub_0)\n  dup1\n  dataOffset(sub_0)\n  0x00\n  codecopy\n  0x00\n  return\nstop\n\nsub_0: assembly {\n        /* \"Lab9/Task/SumInRange.sol\":61:486  contract SumInRange {... */\n      mstore(0x40, 0x80)\n      callvalue\n      dup1\n      iszero\n      tag_1\n      jumpi\n      revert(0x00, 0x00)\n    tag_1:\n      pop\n      jumpi(tag_2, lt(calldatasize, 0x04))\n      shr(0xe0, calldataload(0x00))\n      dup1\n      0xcad0899b\n      eq\n      tag_3\n      jumpi\n    tag_2:\n      revert(0x00, 0x00)\n        /* \"Lab9/Task/SumInRange.sol\":172:483  function sum(uint start, uint to) public pure returns (uint) {... */\n    tag_3:\n      tag_4\n      0x04\n      dup1\n      calldatasize\n      sub\n      dup2\n      add\n      swap1\n      tag_5\n      swap2\n      swap1\n      tag_6\n      jump\t// in\n    tag_5:\n      tag_7\n      jump\t// in\n    tag_4:\n      mload(0x40)\n      tag_8\n      swap2\n      swap1\n      tag_9\n      jump\t// in\n    tag_8:\n      mload(0x40)\n      dup1\n      swap2\n      sub\n      swap1\n      return\n    tag_7:\n        /* \"Lab9/Task/SumInRange.sol\":227:231  uint */\n      0x00\n        /* \"Lab9/Task/SumInRange.sol\":258:263  start */\n      dup3\n        /* \"Lab9/Task/SumInRange.sol\":252:254  to */\n      dup3\n        /* \"Lab9/Task/SumInRange.sol\":252:263  to >= start */\n      lt\n      iszero\n        /* \"Lab9/Task/SumInRange.sol\":244:325  require(to >= start, \"SumInRange: 'to' must be greater than or equal to 'start'\") */\n      tag_11\n      jumpi\n      mload(0x40)\n      0x08c379a000000000000000000000000000000000000000000000000000000000\n      dup2\n      mstore\n      0x04\n      add\n      tag_12\n      swap1\n      tag_13\n      jump\t// in\n    tag_12:\n      mload(0x40)\n      dup1\n      swap2\n      sub\n      swap1\n      revert\n    tag_11:\n        /* \"Lab9/Task/SumInRange.sol\":346:356  uint total */\n      0x00\n        /* \"Lab9/Task/SumInRange.sol\":359:360  0 */\n      0x00\n        /* \"Lab9/Task/SumInRange.sol\":346:360  uint total = 0 */\n      swap1\n      pop\n        /* \"Lab9/Task/SumInRange.sol\":376:382  uint i */\n      0x00\n        /* \"Lab9/Task/SumInRange.sol\":385:390  start */\n      dup5\n        /* \"Lab9/Task/SumInRange.sol\":376:390  uint i = start */\n      swap1\n      pop\n        /* \"Lab9/Task/SumInRange.sol\":371:443  for (uint i = start; i <= to; i++) {... */\n    tag_14:\n        /* \"Lab9/Task/SumInRange.sol\":397:399  to */\n      dup4\n        /* \"Lab9/Task/SumInRange.sol\":392:393  i */\n      dup2\n        /* \"Lab9/Task/SumInRange.sol\":392:399  i <= to */\n      gt\n        /* \"Lab9/Task/SumInRange.sol\":371:443  for (uint i = start; i <= to; i++) {... */\n      tag_15\n      jumpi\n        /* \"Lab9/Task/SumInRange.sol\":430:431  i */\n      dup1\n        /* \"Lab9/Task/SumInRange.sol\":421:431  total += i */\n      dup3\n      tag_17\n      swap2\n      swap1\n      tag_18\n      jump\t// in\n    tag_17:\n      swap2\n      pop\n        /* \"Lab9/Task/SumInRange.sol\":401:404  i++ */\n      dup1\n      dup1\n      tag_19\n      swap1\n      tag_20\n      jump\t// in\n    tag_19:\n      swap2\n      pop\n      pop\n        /* \"Lab9/Task/SumInRange.sol\":371:443  for (uint i = start; i <= to; i++) {... */\n      jump(tag_14)\n    tag_15:\n      pop\n        /* \"Lab9/Task/SumInRange.sol\":470:475  total */\n      dup1\n        /* \"Lab9/Task/SumInRange.sol\":463:475  return total */\n      swap2\n      pop\n      pop\n        /* \"Lab9/Task/SumInRange.sol\":172:483  function sum(uint start, uint to) public pure returns (uint) {... */\n      swap3\n      swap2\n      pop\n      pop\n      jump\t// out\n        /* \"#utility.yul\":88:205   */\n    tag_22:\n        /* \"#utility.yul\":197:198   */\n      0x00\n        /* \"#utility.yul\":194:195   */\n      0x00\n        /* \"#utility.yul\":187:199   */\n      revert\n        /* \"#utility.yul\":334:411   */\n    tag_24:\n        /* \"#utility.yul\":371:378   */\n      0x00\n        /* \"#utility.yul\":400:405   */\n      dup2\n        /* \"#utility.yul\":389:405   */\n      swap1\n      pop\n        /* \"#utility.yul\":334:411   */\n      swap2\n      swap1\n      pop\n      jump\t// out\n        /* \"#utility.yul\":417:539   */\n    tag_25:\n        /* \"#utility.yul\":490:514   */\n      tag_38\n        /* \"#utility.yul\":508:513   */\n      dup2\n        /* \"#utility.yul\":490:514   */\n      tag_24\n      jump\t// in\n    tag_38:\n        /* \"#utility.yul\":483:488   */\n      dup2\n        /* \"#utility.yul\":480:515   */\n      eq\n        /* \"#utility.yul\":470:533   */\n      tag_39\n      jumpi\n        /* \"#utility.yul\":529:530   */\n      0x00\n        /* \"#utility.yul\":526:527   */\n      0x00\n        /* \"#utility.yul\":519:531   */\n      revert\n        /* \"#utility.yul\":470:533   */\n    tag_39:\n        /* \"#utility.yul\":417:539   */\n      pop\n      jump\t// out\n        /* \"#utility.yul\":545:684   */\n    tag_26:\n        /* \"#utility.yul\":591:596   */\n      0x00\n        /* \"#utility.yul\":629:635   */\n      dup2\n        /* \"#utility.yul\":616:636   */\n      calldataload\n        /* \"#utility.yul\":607:636   */\n      swap1\n      pop\n        /* \"#utility.yul\":645:678   */\n      tag_41\n        /* \"#utility.yul\":672:677   */\n      dup2\n        /* \"#utility.yul\":645:678   */\n      tag_25\n      jump\t// in\n    tag_41:\n        /* \"#utility.yul\":545:684   */\n      swap3\n      swap2\n      pop\n      pop\n      jump\t// out\n        /* \"#utility.yul\":690:1164   */\n    tag_6:\n        /* \"#utility.yul\":758:764   */\n      0x00\n        /* \"#utility.yul\":766:772   */\n      0x00\n        /* \"#utility.yul\":815:817   */\n      0x40\n        /* \"#utility.yul\":803:812   */\n      dup4\n        /* \"#utility.yul\":794:801   */\n      dup6\n        /* \"#utility.yul\":790:813   */\n      sub\n        /* \"#utility.yul\":786:818   */\n      slt\n        /* \"#utility.yul\":783:902   */\n      iszero\n      tag_43\n      jumpi\n        /* \"#utility.yul\":821:900   */\n      tag_44\n      tag_22\n      jump\t// in\n    tag_44:\n        /* \"#utility.yul\":783:902   */\n    tag_43:\n        /* \"#utility.yul\":941:942   */\n      0x00\n        /* \"#utility.yul\":966:1019   */\n      tag_45\n        /* \"#utility.yul\":1011:1018   */\n      dup6\n        /* \"#utility.yul\":1002:1008   */\n      dup3\n        /* \"#utility.yul\":991:1000   */\n      dup7\n        /* \"#utility.yul\":987:1009   */\n      add\n        /* \"#utility.yul\":966:1019   */\n      tag_26\n      jump\t// in\n    tag_45:\n        /* \"#utility.yul\":956:1019   */\n      swap3\n      pop\n        /* \"#utility.yul\":912:1029   */\n      pop\n        /* \"#utility.yul\":1068:1070   */\n      0x20\n        /* \"#utility.yul\":1094:1147   */\n      tag_46\n        /* \"#utility.yul\":1139:1146   */\n      dup6\n        /* \"#utility.yul\":1130:1136   */\n      dup3\n        /* \"#utility.yul\":1119:1128   */\n      dup7\n        /* \"#utility.yul\":1115:1137   */\n      add\n        /* \"#utility.yul\":1094:1147   */\n      tag_26\n      jump\t// in\n    tag_46:\n        /* \"#utility.yul\":1084:1147   */\n      swap2\n      pop\n        /* \"#utility.yul\":1039:1157   */\n      pop\n        /* \"#utility.yul\":690:1164   */\n      swap3\n      pop\n      swap3\n      swap1\n      pop\n      jump\t// out\n        /* \"#utility.yul\":1170:1288   */\n    tag_27:\n        /* \"#utility.yul\":1257:1281   */\n      tag_48\n        /* \"#utility.yul\":1275:1280   */\n      dup2\n        /* \"#utility.yul\":1257:1281   */\n      tag_24\n      jump\t// in\n    tag_48:\n        /* \"#utility.yul\":1252:1255   */\n      dup3\n        /* \"#utility.yul\":1245:1282   */\n      mstore\n        /* \"#utility.yul\":1170:1288   */\n      pop\n      pop\n      jump\t// out\n        /* \"#utility.yul\":1294:1516   */\n    tag_9:\n        /* \"#utility.yul\":1387:1391   */\n      0x00\n        /* \"#utility.yul\":1425:1427   */\n      0x20\n        /* \"#utility.yul\":1414:1423   */\n      dup3\n        /* \"#utility.yul\":1410:1428   */\n      add\n        /* \"#utility.yul\":1402:1428   */\n      swap1\n      pop\n        /* \"#utility.yul\":1438:1509   */\n      tag_50\n        /* \"#utility.yul\":1506:1507   */\n      0x00\n        /* \"#utility.yul\":1495:1504   */\n      dup4\n        /* \"#utility.yul\":1491:1508   */\n      add\n        /* \"#utility.yul\":1482:1488   */\n      dup5\n        /* \"#utility.yul\":1438:1509   */\n      tag_27\n      jump\t// in\n    tag_50:\n        /* \"#utility.yul\":1294:1516   */\n      swap3\n      swap2\n      pop\n      pop\n      jump\t// out\n        /* \"#utility.yul\":1522:1691   */\n    tag_28:\n        /* \"#utility.yul\":1606:1617   */\n      0x00\n        /* \"#utility.yul\":1640:1646   */\n      dup3\n        /* \"#utility.yul\":1635:1638   */\n      dup3\n        /* \"#utility.yul\":1628:1647   */\n      mstore\n        /* \"#utility.yul\":1680:1684   */\n      0x20\n        /* \"#utility.yul\":1675:1678   */\n      dup3\n        /* \"#utility.yul\":1671:1685   */\n      add\n        /* \"#utility.yul\":1656:1685   */\n      swap1\n      pop\n        /* \"#utility.yul\":1522:1691   */\n      swap3\n      swap2\n      pop\n      pop\n      jump\t// out\n        /* \"#utility.yul\":1697:1941   */\n    tag_29:\n        /* \"#utility.yul\":1837:1871   */\n      0x53756d496e52616e67653a2027746f27206d7573742062652067726561746572\n        /* \"#utility.yul\":1833:1834   */\n      0x00\n        /* \"#utility.yul\":1825:1831   */\n      dup3\n        /* \"#utility.yul\":1821:1835   */\n      add\n        /* \"#utility.yul\":1814:1872   */\n      mstore\n        /* \"#utility.yul\":1906:1933   */\n      0x207468616e206f7220657175616c20746f202773746172742700000000000000\n        /* \"#utility.yul\":1901:1903   */\n      0x20\n        /* \"#utility.yul\":1893:1899   */\n      dup3\n        /* \"#utility.yul\":1889:1904   */\n      add\n        /* \"#utility.yul\":1882:1934   */\n      mstore\n        /* \"#utility.yul\":1697:1941   */\n      pop\n      jump\t// out\n        /* \"#utility.yul\":1947:2313   */\n    tag_30:\n        /* \"#utility.yul\":2089:2092   */\n      0x00\n        /* \"#utility.yul\":2110:2177   */\n      tag_54\n        /* \"#utility.yul\":2174:2176   */\n      0x39\n        /* \"#utility.yul\":2169:2172   */\n      dup4\n        /* \"#utility.yul\":2110:2177   */\n      tag_28\n      jump\t// in\n    tag_54:\n        /* \"#utility.yul\":2103:2177   */\n      swap2\n      pop\n        /* \"#utility.yul\":2186:2279   */\n      tag_55\n        /* \"#utility.yul\":2275:2278   */\n      dup3\n        /* \"#utility.yul\":2186:2279   */\n      tag_29\n      jump\t// in\n    tag_55:\n        /* \"#utility.yul\":2304:2306   */\n      0x40\n        /* \"#utility.yul\":2299:2302   */\n      dup3\n        /* \"#utility.yul\":2295:2307   */\n      add\n        /* \"#utility.yul\":2288:2307   */\n      swap1\n      pop\n        /* \"#utility.yul\":1947:2313   */\n      swap2\n      swap1\n      pop\n      jump\t// out\n        /* \"#utility.yul\":2319:2738   */\n    tag_13:\n        /* \"#utility.yul\":2485:2489   */\n      0x00\n        /* \"#utility.yul\":2523:2525   */\n      0x20\n        /* \"#utility.yul\":2512:2521   */\n      dup3\n        /* \"#utility.yul\":2508:2526   */\n      add\n        /* \"#utility.yul\":2500:2526   */\n      swap1\n      pop\n        /* \"#utility.yul\":2572:2581   */\n      dup2\n        /* \"#utility.yul\":2566:2570   */\n      dup2\n        /* \"#utility.yul\":2562:2582   */\n      sub\n        /* \"#utility.yul\":2558:2559   */\n      0x00\n        /* \"#utility.yul\":2547:2556   */\n      dup4\n        /* \"#utility.yul\":2543:2560   */\n      add\n        /* \"#utility.yul\":2536:2583   */\n      mstore\n        /* \"#utility.yul\":2600:2731   */\n      tag_57\n        /* \"#utility.yul\":2726:2730   */\n      dup2\n        /* \"#utility.yul\":2600:2731   */\n      tag_30\n      jump\t// in\n    tag_57:\n        /* \"#utility.yul\":2592:2731   */\n      swap1\n      pop\n        /* \"#utility.yul\":2319:2738   */\n      swap2\n      swap1\n      pop\n      jump\t// out\n        /* \"#utility.yul\":2744:2924   */\n    tag_31:\n        /* \"#utility.yul\":2792:2869   */\n      0x4e487b7100000000000000000000000000000000000000000000000000000000\n        /* \"#utility.yul\":2789:2790   */\n      0x00\n        /* \"#utility.yul\":2782:2870   */\n      mstore\n        /* \"#utility.yul\":2889:2893   */\n      0x11\n        /* \"#utility.yul\":2886:2887   */\n      0x04\n        /* \"#utility.yul\":2879:2894   */\n      mstore\n        /* \"#utility.yul\":2913:2917   */\n      0x24\n        /* \"#utility.yul\":2910:2911   */\n      0x00\n        /* \"#utility.yul\":2903:2918   */\n      revert\n        /* \"#utility.yul\":2930:3121   */\n    tag_18:\n        /* \"#utility.yul\":2970:2973   */\n      0x00\n        /* \"#utility.yul\":2989:3009   */\n      tag_60\n        /* \"#utility.yul\":3007:3008   */\n      dup3\n        /* \"#utility.yul\":2989:3009   */\n      tag_24\n      jump\t// in\n    tag_60:\n        /* \"#utility.yul\":2984:3009   */\n      swap2\n      pop\n        /* \"#utility.yul\":3023:3043   */\n      tag_61\n        /* \"#utility.yul\":3041:3042   */\n      dup4\n        /* \"#utility.yul\":3023:3043   */\n      tag_24\n      jump\t// in\n    tag_61:\n        /* \"#utility.yul\":3018:3043   */\n      swap3\n      pop\n        /* \"#utility.yul\":3066:3067   */\n      dup3\n        /* \"#utility.yul\":3063:3064   */\n      dup3\n        /* \"#utility.yul\":3059:3068   */\n      add\n        /* \"#utility.yul\":3052:3068   */\n      swap1\n      pop\n        /* \"#utility.yul\":3087:3090   */\n      dup1\n        /* \"#utility.yul\":3084:3085   */\n      dup3\n        /* \"#utility.yul\":3081:3091   */\n      gt\n        /* \"#utility.yul\":3078:3114   */\n      iszero\n      tag_62\n      jumpi\n        /* \"#utility.yul\":3094:3112   */\n      tag_63\n      tag_31\n      jump\t// in\n    tag_63:\n        /* \"#utility.yul\":3078:3114   */\n    tag_62:\n        /* \"#utility.yul\":2930:3121   */\n      swap3\n      swap2\n      pop\n      pop\n      jump\t// out\n        /* \"#utility.yul\":3127:3360   */\n    tag_20:\n        /* \"#utility.yul\":3166:3169   */\n      0x00\n        /* \"#utility.yul\":3189:3213   */\n      tag_65\n        /* \"#utility.yul\":3207:3212   */\n      dup3\n        /* \"#utility.yul\":3189:3213   */\n      tag_24\n      jump\t// in\n    tag_65:\n        /* \"#utility.yul\":3180:3213   */\n      swap2\n      pop\n        /* \"#utility.yul\":3235:3301   */\n      0xffffffffffffffffffffffffffffffffffffffffffffffffffffffffffffffff\n        /* \"#utility.yul\":3228:3233   */\n      dup3\n        /* \"#utility.yul\":3225:3302   */\n      sub\n        /* \"#utility.yul\":3222:3325   */\n      tag_66\n      jumpi\n        /* \"#utility.yul\":3305:3323   */\n      tag_67\n      tag_31\n      jump\t// in\n    tag_67:\n        /* \"#utility.yul\":3222:3325   */\n    tag_66:\n        /* \"#utility.yul\":3352:3353   */\n      0x01\n        /* \"#utility.yul\":3345:3350   */\n      dup3\n        /* \"#utility.yul\":3341:3354   */\n      add\n        /* \"#utility.yul\":3334:3354   */\n      swap1\n      pop\n        /* \"#utility.yul\":3127:3360   */\n      swap2\n      swap1\n      pop\n      jump\t// out\n\n    auxdata: 0xa2646970667358221220aae4f27a97fbcc631f6ffd0613a1f8bd2d2b271b808ef83868f238a01f2a28c564736f6c63430008220033\n}\n",
				"bytecode": {
					"linkReferences": {},
					"object": "6080604052348015600e575f5ffd5b506102f58061001c5f395ff3fe608060405234801561000f575f5ffd5b5060043610610029575f3560e01c8063cad0899b1461002d575b5f5ffd5b61004760048036038101906100429190610114565b61005d565b6040516100549190610161565b60405180910390f35b5f828210156100a1576040517f08c379a0000000000000000000000000000000000000000000000000000000008152600401610098906101fa565b60405180910390fd5b5f5f90505f8490505b8381116100d25780826100bd9190610245565b915080806100ca90610278565b9150506100aa565b508091505092915050565b5f5ffd5b5f819050919050565b6100f3816100e1565b81146100fd575f5ffd5b50565b5f8135905061010e816100ea565b92915050565b5f5f6040838503121561012a576101296100dd565b5b5f61013785828601610100565b925050602061014885828601610100565b9150509250929050565b61015b816100e1565b82525050565b5f6020820190506101745f830184610152565b92915050565b5f82825260208201905092915050565b7f53756d496e52616e67653a2027746f27206d75737420626520677265617465725f8201527f207468616e206f7220657175616c20746f202773746172742700000000000000602082015250565b5f6101e460398361017a565b91506101ef8261018a565b604082019050919050565b5f6020820190508181035f830152610211816101d8565b9050919050565b7f4e487b71000000000000000000000000000000000000000000000000000000005f52601160045260245ffd5b5f61024f826100e1565b915061025a836100e1565b925082820190508082111561027257610271610218565b5b92915050565b5f610282826100e1565b91507fffffffffffffffffffffffffffffffffffffffffffffffffffffffffffffffff82036102b4576102b3610218565b5b60018201905091905056fea2646970667358221220aae4f27a97fbcc631f6ffd0613a1f8bd2d2b271b808ef83868f238a01f2a28c564736f6c63430008220033",
					"opcodes": "PUSH1 0x80 PUSH1 0x40 MSTORE CALLVALUE DUP1 ISZERO PUSH1 0xE JUMPI PUSH0 PUSH0 REVERT JUMPDEST POP PUSH2 0x2F5 DUP1 PUSH2 0x1C PUSH0 CODECOPY PUSH0 RETURN INVALID PUSH1 0x80 PUSH1 0x40 MSTORE CALLVALUE DUP1 ISZERO PUSH2 0xF JUMPI PUSH0 PUSH0 REVERT JUMPDEST POP PUSH1 0x4 CALLDATASIZE LT PUSH2 0x29 JUMPI PUSH0 CALLDATALOAD PUSH1 0xE0 SHR DUP1 PUSH4 0xCAD0899B EQ PUSH2 0x2D JUMPI JUMPDEST PUSH0 PUSH0 REVERT JUMPDEST PUSH2 0x47 PUSH1 0x4 DUP1 CALLDATASIZE SUB DUP2 ADD SWAP1 PUSH2 0x42 SWAP2 SWAP1 PUSH2 0x114 JUMP JUMPDEST PUSH2 0x5D JUMP JUMPDEST PUSH1 0x40 MLOAD PUSH2 0x54 SWAP2 SWAP1 PUSH2 0x161 JUMP JUMPDEST PUSH1 0x40 MLOAD DUP1 SWAP2 SUB SWAP1 RETURN JUMPDEST PUSH0 DUP3 DUP3 LT ISZERO PUSH2 0xA1 JUMPI PUSH1 0x40 MLOAD PUSH32 0x8C379A000000000000000000000000000000000000000000000000000000000 DUP2 MSTORE PUSH1 0x4 ADD PUSH2 0x98 SWAP1 PUSH2 0x1FA JUMP JUMPDEST PUSH1 0x40 MLOAD DUP1 SWAP2 SUB SWAP1 REVERT JUMPDEST PUSH0 PUSH0 SWAP1 POP PUSH0 DUP5 SWAP1 POP JUMPDEST DUP4 DUP2 GT PUSH2 0xD2 JUMPI DUP1 DUP3 PUSH2 0xBD SWAP2 SWAP1 PUSH2 0x245 JUMP JUMPDEST SWAP2 POP DUP1 DUP1 PUSH2 0xCA SWAP1 PUSH2 0x278 JUMP JUMPDEST SWAP2 POP POP PUSH2 0xAA JUMP JUMPDEST POP DUP1 SWAP2 POP POP SWAP3 SWAP2 POP POP JUMP JUMPDEST PUSH0 PUSH0 REVERT JUMPDEST PUSH0 DUP2 SWAP1 POP SWAP2 SWAP1 POP JUMP JUMPDEST PUSH2 0xF3 DUP2 PUSH2 0xE1 JUMP JUMPDEST DUP2 EQ PUSH2 0xFD JUMPI PUSH0 PUSH0 REVERT JUMPDEST POP JUMP JUMPDEST PUSH0 DUP2 CALLDATALOAD SWAP1 POP PUSH2 0x10E DUP2 PUSH2 0xEA JUMP JUMPDEST SWAP3 SWAP2 POP POP JUMP JUMPDEST PUSH0 PUSH0 PUSH1 0x40 DUP4 DUP6 SUB SLT ISZERO PUSH2 0x12A JUMPI PUSH2 0x129 PUSH2 0xDD JUMP JUMPDEST JUMPDEST PUSH0 PUSH2 0x137 DUP6 DUP3 DUP7 ADD PUSH2 0x100 JUMP JUMPDEST SWAP3 POP POP PUSH1 0x20 PUSH2 0x148 DUP6 DUP3 DUP7 ADD PUSH2 0x100 JUMP JUMPDEST SWAP2 POP POP SWAP3 POP SWAP3 SWAP1 POP JUMP JUMPDEST PUSH2 0x15B DUP2 PUSH2 0xE1 JUMP JUMPDEST DUP3 MSTORE POP POP JUMP JUMPDEST PUSH0 PUSH1 0x20 DUP3 ADD SWAP1 POP PUSH2 0x174 PUSH0 DUP4 ADD DUP5 PUSH2 0x152 JUMP JUMPDEST SWAP3 SWAP2 POP POP JUMP JUMPDEST PUSH0 DUP3 DUP3 MSTORE PUSH1 0x20 DUP3 ADD SWAP1 POP SWAP3 SWAP2 POP POP JUMP JUMPDEST PUSH32 0x53756D496E52616E67653A2027746F27206D7573742062652067726561746572 PUSH0 DUP3 ADD MSTORE PUSH32 0x207468616E206F7220657175616C20746F202773746172742700000000000000 PUSH1 0x20 DUP3 ADD MSTORE POP JUMP JUMPDEST PUSH0 PUSH2 0x1E4 PUSH1 0x39 DUP4 PUSH2 0x17A JUMP JUMPDEST SWAP2 POP PUSH2 0x1EF DUP3 PUSH2 0x18A JUMP JUMPDEST PUSH1 0x40 DUP3 ADD SWAP1 POP SWAP2 SWAP1 POP JUMP JUMPDEST PUSH0 PUSH1 0x20 DUP3 ADD SWAP1 POP DUP2 DUP2 SUB PUSH0 DUP4 ADD MSTORE PUSH2 0x211 DUP2 PUSH2 0x1D8 JUMP JUMPDEST SWAP1 POP SWAP2 SWAP1 POP JUMP JUMPDEST PUSH32 0x4E487B7100000000000000000000000000000000000000000000000000000000 PUSH0 MSTORE PUSH1 0x11 PUSH1 0x4 MSTORE PUSH1 0x24 PUSH0 REVERT JUMPDEST PUSH0 PUSH2 0x24F DUP3 PUSH2 0xE1 JUMP JUMPDEST SWAP2 POP PUSH2 0x25A DUP4 PUSH2 0xE1 JUMP JUMPDEST SWAP3 POP DUP3 DUP3 ADD SWAP1 POP DUP1 DUP3 GT ISZERO PUSH2 0x272 JUMPI PUSH2 0x271 PUSH2 0x218 JUMP JUMPDEST JUMPDEST SWAP3 SWAP2 POP POP JUMP JUMPDEST PUSH0 PUSH2 0x282 DUP3 PUSH2 0xE1 JUMP JUMPDEST SWAP2 POP PUSH32 0xFFFFFFFFFFFFFFFFFFFFFFFFFFFFFFFFFFFFFFFFFFFFFFFFFFFFFFFFFFFFFFFF DUP3 SUB PUSH2 0x2B4 JUMPI PUSH2 0x2B3 PUSH2 0x218 JUMP JUMPDEST JUMPDEST PUSH1 0x1 DUP3 ADD SWAP1 POP SWAP2 SWAP1 POP JUMP INVALID LOG2 PUSH5 0x6970667358 0x22 SLT KECCAK256 0xAA RETF CALLCODE PUSH27 0x97FBCC631F6FFD0613A1F8BD2D2B271B808EF83868F238A01F2A28 0xC5 PUSH5 0x736F6C6343 STOP ADDMOD 0x22 STOP CALLER "
				},
				"gasEstimates": {
					"creation": {
						"codeDepositCost": "151400",
						"executionCost": "194",
						"totalCost": "151594"
					},
					"external": {
						"sum(uint256,uint256)": "infinite"
					}
				},
				"methodIdentifiers": {
					"sum(uint256,uint256)": "cad0899b"
				}
			},
			"storageLayout": {
				"storage": [],
				"types": null
			},
			"userdoc": {
				"kind": "user",
				"methods": {},
				"version": 1
			}
		}
	}
}